{
  "_format": "hh-sol-artifact-1",
  "contractName": "ElectionContract",
  "sourceName": "contracts/ElectionContract.sol",
  "abi": [
    {
      "inputs": [
        {
          "internalType": "string",
          "name": "pvn",
          "type": "string"
        },
        {
          "internalType": "string",
          "name": "voter_id",
          "type": "string"
        },
        {
          "internalType": "string",
          "name": "candidate",
          "type": "string"
        },
        {
          "internalType": "bool",
          "name": "isVerified",
          "type": "bool"
        }
      ],
      "name": "castVote",
      "outputs": [],
      "stateMutability": "nonpayable",
      "type": "function"
    },
    {
      "inputs": [],
      "name": "getAllVotes",
      "outputs": [
        {
          "internalType": "string[]",
          "name": "",
          "type": "string[]"
        }
      ],
      "stateMutability": "view",
      "type": "function"
    },
    {
      "inputs": [
        {
          "internalType": "string",
          "name": "voter_id",
          "type": "string"
        }
      ],
      "name": "getYourVote",
      "outputs": [
        {
          "components": [
            {
              "internalType": "string",
              "name": "pvn",
              "type": "string"
            },
            {
              "internalType": "string",
              "name": "voter_id",
              "type": "string"
            },
            {
              "internalType": "address",
              "name": "meta_address",
              "type": "address"
            },
            {
              "internalType": "string",
              "name": "candidate_id",
              "type": "string"
            },
            {
              "internalType": "bool",
              "name": "isValue",
              "type": "bool"
            }
          ],
          "internalType": "struct ElectionContract.vote",
          "name": "",
          "type": "tuple"
        }
      ],
      "stateMutability": "view",
      "type": "function"
    }
  ],
  "bytecode": "0x608060405234801561001057600080fd5b50610c25806100206000396000f3fe608060405234801561001057600080fd5b50600436106100415760003560e01c8063851b6ef214610046578063a40689e114610064578063a6a2678a14610094575b600080fd5b61004e6100b0565b60405161005b919061098c565b60405180910390f35b61007e600480360381019061007991906106f4565b610189565b60405161008b91906109ae565b60405180910390f35b6100ae60048036038101906100a99190610735565b6103e8565b005b60606000805480602002602001604051908101604052809291908181526020016000905b828210156101805783829060005260206000200180546100f390610b06565b80601f016020809104026020016040519081016040528092919081815260200182805461011f90610b06565b801561016c5780601f106101415761010080835404028352916020019161016c565b820191906000526020600020905b81548152906001019060200180831161014f57829003601f168201915b5050505050815260200190600101906100d4565b50505050905090565b61019161058d565b6001826040516101a19190610975565b90815260200160405180910390206040518060a00160405290816000820180546101ca90610b06565b80601f01602080910402602001604051908101604052809291908181526020018280546101f690610b06565b80156102435780601f1061021857610100808354040283529160200191610243565b820191906000526020600020905b81548152906001019060200180831161022657829003601f168201915b5050505050815260200160018201805461025c90610b06565b80601f016020809104026020016040519081016040528092919081815260200182805461028890610b06565b80156102d55780601f106102aa576101008083540402835291602001916102d5565b820191906000526020600020905b8154815290600101906020018083116102b857829003601f168201915b505050505081526020016002820160009054906101000a900473ffffffffffffffffffffffffffffffffffffffff1673ffffffffffffffffffffffffffffffffffffffff1673ffffffffffffffffffffffffffffffffffffffff16815260200160038201805461034490610b06565b80601f016020809104026020016040519081016040528092919081815260200182805461037090610b06565b80156103bd5780601f10610392576101008083540402835291602001916103bd565b820191906000526020600020905b8154815290600101906020018083116103a057829003601f168201915b505050505081526020016004820160009054906101000a900460ff1615151515815250509050919050565b806103f257610587565b6001836040516104029190610975565b908152602001604051809103902060040160009054906101000a900460ff161561042b57610587565b6040518060a001604052808581526020018481526020013373ffffffffffffffffffffffffffffffffffffffff1681526020018381526020016001151581525060018460405161047b9190610975565b908152602001604051809103902060008201518160000190805190602001906104a59291906105d4565b5060208201518160010190805190602001906104c29291906105d4565b5060408201518160020160006101000a81548173ffffffffffffffffffffffffffffffffffffffff021916908373ffffffffffffffffffffffffffffffffffffffff16021790555060608201518160030190805190602001906105269291906105d4565b5060808201518160040160006101000a81548160ff0219169083151502179055509050506000829080600181540180825580915050600190039060005260206000200160009091909190915090805190602001906105859291906105d4565b505b50505050565b6040518060a001604052806060815260200160608152602001600073ffffffffffffffffffffffffffffffffffffffff168152602001606081526020016000151581525090565b8280546105e090610b06565b90600052602060002090601f0160209004810192826106025760008555610649565b82601f1061061b57805160ff1916838001178555610649565b82800160010185558215610649579182015b8281111561064857825182559160200191906001019061062d565b5b509050610656919061065a565b5090565b5b8082111561067357600081600090555060010161065b565b5090565b600061068a610685846109f5565b6109d0565b9050828152602081018484840111156106a257600080fd5b6106ad848285610ac4565b509392505050565b6000813590506106c481610bd8565b92915050565b600082601f8301126106db57600080fd5b81356106eb848260208601610677565b91505092915050565b60006020828403121561070657600080fd5b600082013567ffffffffffffffff81111561072057600080fd5b61072c848285016106ca565b91505092915050565b6000806000806080858703121561074b57600080fd5b600085013567ffffffffffffffff81111561076557600080fd5b610771878288016106ca565b945050602085013567ffffffffffffffff81111561078e57600080fd5b61079a878288016106ca565b935050604085013567ffffffffffffffff8111156107b757600080fd5b6107c3878288016106ca565b92505060606107d4878288016106b5565b91505092959194509250565b60006107ec8383610887565b905092915050565b6107fd81610a86565b82525050565b600061080e82610a36565b6108188185610a59565b93508360208202850161082a85610a26565b8060005b85811015610866578484038952815161084785826107e0565b945061085283610a4c565b925060208a0199505060018101905061082e565b50829750879550505050505092915050565b61088181610a98565b82525050565b600061089282610a41565b61089c8185610a6a565b93506108ac818560208601610ad3565b6108b581610bc7565b840191505092915050565b60006108cb82610a41565b6108d58185610a7b565b93506108e5818560208601610ad3565b80840191505092915050565b600060a083016000830151848203600086015261090e8282610887565b915050602083015184820360208601526109288282610887565b915050604083015161093d60408601826107f4565b50606083015184820360608601526109558282610887565b915050608083015161096a6080860182610878565b508091505092915050565b600061098182846108c0565b915081905092915050565b600060208201905081810360008301526109a68184610803565b905092915050565b600060208201905081810360008301526109c881846108f1565b905092915050565b60006109da6109eb565b90506109e68282610b38565b919050565b6000604051905090565b600067ffffffffffffffff821115610a1057610a0f610b98565b5b610a1982610bc7565b9050602081019050919050565b6000819050602082019050919050565b600081519050919050565b600081519050919050565b6000602082019050919050565b600082825260208201905092915050565b600082825260208201905092915050565b600081905092915050565b6000610a9182610aa4565b9050919050565b60008115159050919050565b600073ffffffffffffffffffffffffffffffffffffffff82169050919050565b82818337600083830152505050565b60005b83811015610af1578082015181840152602081019050610ad6565b83811115610b00576000848401525b50505050565b60006002820490506001821680610b1e57607f821691505b60208210811415610b3257610b31610b69565b5b50919050565b610b4182610bc7565b810181811067ffffffffffffffff82111715610b6057610b5f610b98565b5b80604052505050565b7f4e487b7100000000000000000000000000000000000000000000000000000000600052602260045260246000fd5b7f4e487b7100000000000000000000000000000000000000000000000000000000600052604160045260246000fd5b6000601f19601f8301169050919050565b610be181610a98565b8114610bec57600080fd5b5056fea2646970667358221220927b764e2e02e65e8e88bd3bafb1c199948a21b642951f700ec82efa35fb5e4764736f6c63430008040033",
  "linkReferences": {},
  "deployedLinkReferences": {}
}